:100000000C945A000C9477000C9477000C947700B1
:100010000C9477000C9477000C9477000C94770084
:100020000C9477000C9477000C9477000C94770074
:100030000C9477000C9477000C9477000C94770064
:100040000C94BD000C9477000C9477000C9477000E
:100050000C9477000C9477000C9477000C94770044
:100060000C9477000C947700000024272A000025C8
:10007000282B000023262904040404040404040299
:100080000202020202030303030303010204081035
:100090002040800102040810200102040810200002
:1000A0000000070002010000030406000000000039
:1000B0000000000011241FBECFEFD4E0DEBFCDBF93
:1000C00011E0A0E0B1E0ECE8F5E002C005900D928F
:1000D000A830B107D9F711E0A8E0B1E001C01D9246
:1000E000A231B107E1F70E94B6000C94C4020C944F
:1000F0000000CF93DF93C0E0D0E0BE01617070706C
:10010000809100010E942D026AE070E080E090E0A2
:100110000E9428012196C630D10579F764E170E08C
:1001200080E090E00E942801DF91CF9108950F9325
:100130001F93809108010E949D018C018091020112
:100140000E949D018017910744F4809104010E9450
:100150007802019711F40E9479001F910F91089580
:1001600061E0809100010E940F0208950E946001E9
:100170000E94B0000E949700FDCF1F920F920FB611
:100180000F9211242F938F939F93AF93BF938091DE
:100190000A0190910B01A0910C01B0910D018050CA
:1001A000904CAF4FBF4F80930A0190930B01A093E7
:1001B0000C01B0930D0127C080910A0190910B01B1
:1001C000A0910C01B0910D0180589E43A040B04019
:1001D00080930A0190930B01A0930C01B0930D0141
:1001E00080910E0190910F01A0911001B091110129
:1001F0000196A11DB11D80930E0190930F01A09354
:100200001001B093110180910A0190910B01A0910E
:100210000C01B0910D0181589E43A040B04060F6A2
:10022000BF91AF919F918F912F910F900FBE0F9023
:100230001F9018958FB7F89420910E0130910F01FF
:1002400040911001509111018FBFB901CA01089569
:10025000EF92FF920F931F937B018C018FB7F8945D
:1002600040910E0150910F016091100170911101A8
:100270008FBF2FB7F89480910E0190910F01A0913C
:100280001001B09111012FBF841B950BA60BB70B6A
:100290008E159F05A007B10760F31F910F91FF9086
:1002A000EF900895019759F0FC01EE0FFF1FEE0F3C
:1002B000FF1F32978FB7F8943197F1F78FBF0895EA
:1002C000789484B5826084BD84B5816084BD85B531
:1002D000826085BD85B5816085BDEEE6F0E08081F8
:1002E00081608083E1E8F0E08081826080838081AA
:1002F00081608083E0E8F0E0808181608083E1EBD1
:10030000F0E0808184608083E0EBF0E080818160B8
:100310008083EAE7F0E0808184608083808182606E
:100320008083808181608083808180688083109257
:10033000C10008958093060108958F709091060181
:100340009295990F990F907C982B90937C008091B7
:100350007A00806480937A0080917A0086FDFCCFD9
:100360002091780040917900942F80E030E0282B94
:10037000392BC90108951F93CF93DF93182FEB01F9
:1003800061E00E940F02E12FF0E0E156FF4F8491FF
:10039000833051F480918000806880938000D093F6
:1003A0008900C093880037C0843051F48091800068
:1003B000806280938000D0938B00C0938A002BC012
:1003C000813029F484B5806884BDC7BD24C08230E3
:1003D00029F484B5806284BDC8BD1DC0863041F457
:1003E0008091B00080688093B000C093B30013C0C8
:1003F000873041F48091B00080628093B000C09358
:10040000B40009C0C038D10514F460E001C061E057
:10041000812F0E942D02DF91CF911F910895282FE7
:1004200030E0C90185579F4FFC01949129583F4FF7
:10043000F9018491882381F0E82FF0E0E859FF4F1B
:10044000E491F0E0662329F48081909589238083EC
:1004500008958081892B80830895482F50E0CA0138
:1004600081569F4FFC012491CA0185579F4FFC0183
:10047000949149585F4FFA0134913323C1F12223FB
:1004800031F1233021F4809180008F7705C0243032
:1004900031F4809180008F7D8093800018C02130DE
:1004A00019F484B58F7704C0223021F484B58F7D90
:1004B00084BD0DC0263021F48091B0008F7705C037
:1004C000273029F48091B0008F7D8093B000E32F16
:1004D000F0E0E359FF4FE491F0E0662329F48081D6
:1004E00090958923808308958081892B8083089546
:1004F000482F50E0CA0181569F4FFC012491CA0148
:1005000085579F4FFC01949149585F4FFA013491F0
:10051000332319F420E030E035C0222331F12330B9
:1005200021F4809180008F7705C0243031F48091D0
:1005300080008F7D8093800018C0213019F484B52D
:100540008F7704C0223021F484B58F7D84BD0DC027
:10055000263021F48091B0008F7705C0273029F430
:100560008091B0008F7D8093B000E32FF0E0EE58D3
:10057000FF4FE491F0E0808120E030E0892311F02A
:0C05800021E030E0C9010895F894FFCF9D
:08058C00020001000300010060
:00000001FF
